{
  "contractName": "LandRegistry",
  "abi": [
    {
      "anonymous": false,
      "inputs": [
        {
          "indexed": true,
          "internalType": "uint256",
          "name": "landId",
          "type": "uint256"
        },
        {
          "indexed": false,
          "internalType": "string",
          "name": "location",
          "type": "string"
        },
        {
          "indexed": false,
          "internalType": "uint256",
          "name": "area",
          "type": "uint256"
        },
        {
          "indexed": true,
          "internalType": "address",
          "name": "owner",
          "type": "address"
        }
      ],
      "name": "LandRegistered",
      "type": "event"
    },
    {
      "anonymous": false,
      "inputs": [
        {
          "indexed": true,
          "internalType": "uint256",
          "name": "landId",
          "type": "uint256"
        },
        {
          "indexed": true,
          "internalType": "address",
          "name": "oldOwner",
          "type": "address"
        },
        {
          "indexed": true,
          "internalType": "address",
          "name": "newOwner",
          "type": "address"
        }
      ],
      "name": "OwnershipTransferred",
      "type": "event"
    },
    {
      "inputs": [
        {
          "internalType": "uint256",
          "name": "",
          "type": "uint256"
        }
      ],
      "name": "lands",
      "outputs": [
        {
          "internalType": "uint256",
          "name": "id",
          "type": "uint256"
        },
        {
          "internalType": "string",
          "name": "location",
          "type": "string"
        },
        {
          "internalType": "uint256",
          "name": "area",
          "type": "uint256"
        },
        {
          "internalType": "address",
          "name": "owner",
          "type": "address"
        },
        {
          "internalType": "bool",
          "name": "registered",
          "type": "bool"
        }
      ],
      "stateMutability": "view",
      "type": "function"
    },
    {
      "inputs": [
        {
          "internalType": "uint256",
          "name": "_id",
          "type": "uint256"
        },
        {
          "internalType": "string",
          "name": "_location",
          "type": "string"
        },
        {
          "internalType": "uint256",
          "name": "_area",
          "type": "uint256"
        }
      ],
      "name": "registerLand",
      "outputs": [],
      "stateMutability": "nonpayable",
      "type": "function"
    },
    {
      "inputs": [
        {
          "internalType": "uint256",
          "name": "_id",
          "type": "uint256"
        },
        {
          "internalType": "address",
          "name": "_newOwner",
          "type": "address"
        }
      ],
      "name": "transferOwnership",
      "outputs": [],
      "stateMutability": "nonpayable",
      "type": "function"
    },
    {
      "inputs": [
        {
          "internalType": "uint256",
          "name": "_id",
          "type": "uint256"
        }
      ],
      "name": "getLand",
      "outputs": [
        {
          "internalType": "uint256",
          "name": "",
          "type": "uint256"
        },
        {
          "internalType": "string",
          "name": "",
          "type": "string"
        },
        {
          "internalType": "uint256",
          "name": "",
          "type": "uint256"
        },
        {
          "internalType": "address",
          "name": "",
          "type": "address"
        },
        {
          "internalType": "bool",
          "name": "",
          "type": "bool"
        }
      ],
      "stateMutability": "view",
      "type": "function"
    },
    {
      "inputs": [
        {
          "internalType": "uint256",
          "name": "_id",
          "type": "uint256"
        }
      ],
      "name": "isLandRegistered",
      "outputs": [
        {
          "internalType": "bool",
          "name": "",
          "type": "bool"
        }
      ],
      "stateMutability": "view",
      "type": "function"
    }
  ],
  "bytecode": "0x608060405234801561000f575f80fd5b506110668061001d5f395ff3fe608060405234801561000f575f80fd5b5060043610610055575f3560e01c806329507f73146100595780632e8782bc1461007557806398f1c340146100a5578063e261f1e5146100c1578063f02dd53f146100f5575b5f80fd5b610073600480360381019061006e919061083f565b610129565b005b61008f600480360381019061008a919061087d565b610356565b60405161009c91906108c2565b60405180910390f35b6100bf60048036038101906100ba9190610a17565b61037f565b005b6100db60048036038101906100d6919061087d565b610517565b6040516100ec959493929190610b1b565b60405180910390f35b61010f600480360381019061010a919061087d565b6105fa565b604051610120959493929190610b1b565b60405180910390f35b5f805f8481526020019081526020015f2090508060030160149054906101000a900460ff1661018d576040517f08c379a000000000000000000000000000000000000000000000000000000000815260040161018490610bbd565b60405180910390fd5b3373ffffffffffffffffffffffffffffffffffffffff16816003015f9054906101000a900473ffffffffffffffffffffffffffffffffffffffff1673ffffffffffffffffffffffffffffffffffffffff161461021e576040517f08c379a000000000000000000000000000000000000000000000000000000000815260040161021590610c4b565b60405180910390fd5b5f73ffffffffffffffffffffffffffffffffffffffff168273ffffffffffffffffffffffffffffffffffffffff160361028c576040517f08c379a000000000000000000000000000000000000000000000000000000000815260040161028390610cb3565b60405180910390fd5b5f816003015f9054906101000a900473ffffffffffffffffffffffffffffffffffffffff16905082826003015f6101000a81548173ffffffffffffffffffffffffffffffffffffffff021916908373ffffffffffffffffffffffffffffffffffffffff1602179055508273ffffffffffffffffffffffffffffffffffffffff168173ffffffffffffffffffffffffffffffffffffffff16857f16b85f49bf01212961345d3016c9a531894accf62eb7680f2045d79185cc0ec060405160405180910390a450505050565b5f805f8381526020019081526020015f2060030160149054906101000a900460ff169050919050565b5f808481526020019081526020015f2060030160149054906101000a900460ff16156103e0576040517f08c379a00000000000000000000000000000000000000000000000000000000081526004016103d790610d1b565b60405180910390fd5b6040518060a001604052808481526020018381526020018281526020013373ffffffffffffffffffffffffffffffffffffffff168152602001600115158152505f808581526020019081526020015f205f820151815f0155602082015181600101908161044d9190610f33565b50604082015181600201556060820151816003015f6101000a81548173ffffffffffffffffffffffffffffffffffffffff021916908373ffffffffffffffffffffffffffffffffffffffff16021790555060808201518160030160146101000a81548160ff0219169083151502179055509050503373ffffffffffffffffffffffffffffffffffffffff16837f53a976a9b9d61df3bb2e08e33448938aea67fb03572279eb18ed48cdd6fad04e848460405161050a929190611002565b60405180910390a3505050565b5f602052805f5260405f205f91509050805f01549080600101805461053b90610d66565b80601f016020809104026020016040519081016040528092919081815260200182805461056790610d66565b80156105b25780601f10610589576101008083540402835291602001916105b2565b820191905f5260205f20905b81548152906001019060200180831161059557829003601f168201915b505050505090806002015490806003015f9054906101000a900473ffffffffffffffffffffffffffffffffffffffff16908060030160149054906101000a900460ff16905085565b5f60605f805f805f808881526020019081526020015f206040518060a00160405290815f820154815260200160018201805461063590610d66565b80601f016020809104026020016040519081016040528092919081815260200182805461066190610d66565b80156106ac5780601f10610683576101008083540402835291602001916106ac565b820191905f5260205f20905b81548152906001019060200180831161068f57829003601f168201915b5050505050815260200160028201548152602001600382015f9054906101000a900473ffffffffffffffffffffffffffffffffffffffff1673ffffffffffffffffffffffffffffffffffffffff1673ffffffffffffffffffffffffffffffffffffffff1681526020016003820160149054906101000a900460ff16151515158152505090508060800151610775576040517f08c379a000000000000000000000000000000000000000000000000000000000815260040161076c90610bbd565b60405180910390fd5b805f01518160200151826040015183606001518460800151955095509550955095505091939590929450565b5f604051905090565b5f80fd5b5f80fd5b5f819050919050565b6107c4816107b2565b81146107ce575f80fd5b50565b5f813590506107df816107bb565b92915050565b5f73ffffffffffffffffffffffffffffffffffffffff82169050919050565b5f61080e826107e5565b9050919050565b61081e81610804565b8114610828575f80fd5b50565b5f8135905061083981610815565b92915050565b5f8060408385031215610855576108546107aa565b5b5f610862858286016107d1565b92505060206108738582860161082b565b9150509250929050565b5f60208284031215610892576108916107aa565b5b5f61089f848285016107d1565b91505092915050565b5f8115159050919050565b6108bc816108a8565b82525050565b5f6020820190506108d55f8301846108b3565b92915050565b5f80fd5b5f80fd5b5f601f19601f8301169050919050565b7f4e487b71000000000000000000000000000000000000000000000000000000005f52604160045260245ffd5b610929826108e3565b810181811067ffffffffffffffff82111715610948576109476108f3565b5b80604052505050565b5f61095a6107a1565b90506109668282610920565b919050565b5f67ffffffffffffffff821115610985576109846108f3565b5b61098e826108e3565b9050602081019050919050565b828183375f83830152505050565b5f6109bb6109b68461096b565b610951565b9050828152602081018484840111156109d7576109d66108df565b5b6109e284828561099b565b509392505050565b5f82601f8301126109fe576109fd6108db565b5b8135610a0e8482602086016109a9565b91505092915050565b5f805f60608486031215610a2e57610a2d6107aa565b5b5f610a3b868287016107d1565b935050602084013567ffffffffffffffff811115610a5c57610a5b6107ae565b5b610a68868287016109ea565b9250506040610a79868287016107d1565b9150509250925092565b610a8c816107b2565b82525050565b5f81519050919050565b5f82825260208201905092915050565b5f5b83811015610ac9578082015181840152602081019050610aae565b5f8484015250505050565b5f610ade82610a92565b610ae88185610a9c565b9350610af8818560208601610aac565b610b01816108e3565b840191505092915050565b610b1581610804565b82525050565b5f60a082019050610b2e5f830188610a83565b8181036020830152610b408187610ad4565b9050610b4f6040830186610a83565b610b5c6060830185610b0c565b610b6960808301846108b3565b9695505050505050565b7f4c616e64206e6f742072656769737465726564000000000000000000000000005f82015250565b5f610ba7601383610a9c565b9150610bb282610b73565b602082019050919050565b5f6020820190508181035f830152610bd481610b9b565b9050919050565b7f4f6e6c7920746865206f776e65722063616e207472616e73666572206f776e655f8201527f7273686970000000000000000000000000000000000000000000000000000000602082015250565b5f610c35602583610a9c565b9150610c4082610bdb565b604082019050919050565b5f6020820190508181035f830152610c6281610c29565b9050919050565b7f496e76616c6964206164647265737300000000000000000000000000000000005f82015250565b5f610c9d600f83610a9c565b9150610ca882610c69565b602082019050919050565b5f6020820190508181035f830152610cca81610c91565b9050919050565b7f4c616e6420697320616c726561647920726567697374657265640000000000005f82015250565b5f610d05601a83610a9c565b9150610d1082610cd1565b602082019050919050565b5f6020820190508181035f830152610d3281610cf9565b9050919050565b7f4e487b71000000000000000000000000000000000000000000000000000000005f52602260045260245ffd5b5f6002820490506001821680610d7d57607f821691505b602082108103610d9057610d8f610d39565b5b50919050565b5f819050815f5260205f209050919050565b5f6020601f8301049050919050565b5f82821b905092915050565b5f60088302610df27fffffffffffffffffffffffffffffffffffffffffffffffffffffffffffffffff82610db7565b610dfc8683610db7565b95508019841693508086168417925050509392505050565b5f819050919050565b5f610e37610e32610e2d846107b2565b610e14565b6107b2565b9050919050565b5f819050919050565b610e5083610e1d565b610e64610e5c82610e3e565b848454610dc3565b825550505050565b5f90565b610e78610e6c565b610e83818484610e47565b505050565b5b81811015610ea657610e9b5f82610e70565b600181019050610e89565b5050565b601f821115610eeb57610ebc81610d96565b610ec584610da8565b81016020851015610ed4578190505b610ee8610ee085610da8565b830182610e88565b50505b505050565b5f82821c905092915050565b5f610f0b5f1984600802610ef0565b1980831691505092915050565b5f610f238383610efc565b9150826002028217905092915050565b610f3c82610a92565b67ffffffffffffffff811115610f5557610f546108f3565b5b610f5f8254610d66565b610f6a828285610eaa565b5f60209050601f831160018114610f9b575f8415610f89578287015190505b610f938582610f18565b865550610ffa565b601f198416610fa986610d96565b5f5b82811015610fd057848901518255600182019150602085019450602081019050610fab565b86831015610fed5784890151610fe9601f891682610efc565b8355505b6001600288020188555050505b505050505050565b5f6040820190508181035f83015261101a8185610ad4565b90506110296020830184610a83565b939250505056fea2646970667358221220d0878547e77e7b6995d2d7aa77f05a977aa773480c11327f712132899be5447864736f6c63430008150033",
  "immutableReferences": {},
  "source": "// SPDX-License-Identifier: MIT\r\npragma solidity ^0.8.0;\r\n\r\ncontract LandRegistry {\r\n\r\n    struct Land {\r\n        uint256 id;\r\n        string location;\r\n        uint256 area;\r\n        address owner;\r\n        bool registered;\r\n    }\r\n\r\n    mapping(uint256 => Land) public lands;\r\n\r\n    event LandRegistered(uint256 indexed landId, string location, uint256 area, address indexed owner);\r\n    event OwnershipTransferred(uint256 indexed landId, address indexed oldOwner, address indexed newOwner);\r\n\r\n    function registerLand(uint256 _id, string memory _location, uint256 _area) public {\r\n        require(!lands[_id].registered, \"Land is already registered\");\r\n\r\n        lands[_id] = Land({\r\n            id: _id,\r\n            location: _location,\r\n            area: _area,\r\n            owner: msg.sender,\r\n            registered: true\r\n        });\r\n\r\n        emit LandRegistered(_id, _location, _area, msg.sender);\r\n    }\r\n\r\n    function transferOwnership(uint256 _id, address _newOwner) public {\r\n        Land storage land = lands[_id];\r\n        require(land.registered, \"Land not registered\");\r\n        require(land.owner == msg.sender, \"Only the owner can transfer ownership\");\r\n        require(_newOwner != address(0), \"Invalid address\");\r\n\r\n        address oldOwner = land.owner;\r\n        land.owner = _newOwner;\r\n\r\n        emit OwnershipTransferred(_id, oldOwner, _newOwner);\r\n    }\r\n\r\n    function getLand(uint256 _id) public view returns (uint256, string memory, uint256, address, bool) {\r\n        Land memory land = lands[_id];\r\n        require(land.registered, \"Land not registered\");\r\n\r\n        return (land.id, land.location, land.area, land.owner, land.registered);\r\n    }\r\n\r\n    function isLandRegistered(uint256 _id) public view returns (bool) {\r\n        return lands[_id].registered;\r\n    }\r\n}\r\n",
  "sourcePath": "C:\\Users\\tusha\\OneDrive\\Documents\\land Registry\\contracts\\land.sol",
  "compiler": {
    "name": "solc",
    "version": "0.8.21+commit.d9974bed.Emscripten.clang"
  },
  "schemaVersion": "3.4.16",
  "updatedAt": "2025-02-04T17:04:14.674Z",
  "devdoc": {
    "kind": "dev",
    "methods": {},
    "version": 1
  },
  "userdoc": {
    "kind": "user",
    "methods": {},
    "version": 1
  }
}